{
  "_format": "hh-sol-artifact-1",
  "contractName": "AntAgingPills",
  "sourceName": "contracts/AntAgingPills.sol",
  "abi": [
    {
      "anonymous": false,
      "inputs": [
        {
          "indexed": false,
          "internalType": "uint8",
          "name": "version",
          "type": "uint8"
        }
      ],
      "name": "Initialized",
      "type": "event"
    },
    {
      "anonymous": false,
      "inputs": [
        {
          "indexed": true,
          "internalType": "address",
          "name": "previousOwner",
          "type": "address"
        },
        {
          "indexed": true,
          "internalType": "address",
          "name": "newOwner",
          "type": "address"
        }
      ],
      "name": "OwnershipTransferred",
      "type": "event"
    },
    {
      "anonymous": false,
      "inputs": [
        {
          "indexed": false,
          "internalType": "uint256",
          "name": "tokenId",
          "type": "uint256"
        },
        {
          "indexed": false,
          "internalType": "address",
          "name": "to",
          "type": "address"
        },
        {
          "indexed": false,
          "internalType": "uint256",
          "name": "startTime",
          "type": "uint256"
        },
        {
          "indexed": false,
          "internalType": "uint256",
          "name": "endTime",
          "type": "uint256"
        },
        {
          "indexed": false,
          "internalType": "uint256",
          "name": "exponent",
          "type": "uint256"
        },
        {
          "indexed": false,
          "internalType": "uint256",
          "name": "tokenAmount",
          "type": "uint256"
        }
      ],
      "name": "lockAntAgingCreated",
      "type": "event"
    },
    {
      "anonymous": false,
      "inputs": [
        {
          "indexed": false,
          "internalType": "uint256",
          "name": "tokenId",
          "type": "uint256"
        },
        {
          "indexed": false,
          "internalType": "address",
          "name": "user",
          "type": "address"
        },
        {
          "indexed": false,
          "internalType": "uint256",
          "name": "withdrawnAmount",
          "type": "uint256"
        },
        {
          "indexed": false,
          "internalType": "uint256",
          "name": "releasedTokens",
          "type": "uint256"
        }
      ],
      "name": "lockAntAgingWithdrawal",
      "type": "event"
    },
    {
      "inputs": [
        {
          "internalType": "address",
          "name": "to",
          "type": "address"
        },
        {
          "internalType": "uint256",
          "name": "tokenAmount",
          "type": "uint256"
        },
        {
          "internalType": "uint256",
          "name": "startTime",
          "type": "uint256"
        },
        {
          "internalType": "uint256",
          "name": "endTime",
          "type": "uint256"
        },
        {
          "internalType": "uint256",
          "name": "exponent",
          "type": "uint256"
        }
      ],
      "name": "createAntAging",
      "outputs": [],
      "stateMutability": "nonpayable",
      "type": "function"
    },
    {
      "inputs": [],
      "name": "feeToken",
      "outputs": [
        {
          "internalType": "address",
          "name": "",
          "type": "address"
        }
      ],
      "stateMutability": "view",
      "type": "function"
    },
    {
      "inputs": [
        {
          "internalType": "uint256",
          "name": "tokenId",
          "type": "uint256"
        }
      ],
      "name": "getReleasedTokens",
      "outputs": [
        {
          "internalType": "uint256",
          "name": "releasedTokens",
          "type": "uint256"
        }
      ],
      "stateMutability": "view",
      "type": "function"
    },
    {
      "inputs": [],
      "name": "getblckTime",
      "outputs": [
        {
          "internalType": "uint256",
          "name": "",
          "type": "uint256"
        }
      ],
      "stateMutability": "view",
      "type": "function"
    },
    {
      "inputs": [
        {
          "internalType": "address",
          "name": "nftAddress_",
          "type": "address"
        },
        {
          "internalType": "address",
          "name": "feeToken_",
          "type": "address"
        }
      ],
      "name": "initialize",
      "outputs": [],
      "stateMutability": "nonpayable",
      "type": "function"
    },
    {
      "inputs": [
        {
          "internalType": "uint256",
          "name": "",
          "type": "uint256"
        }
      ],
      "name": "lockInfoById",
      "outputs": [
        {
          "internalType": "uint256",
          "name": "lockedAmount",
          "type": "uint256"
        },
        {
          "internalType": "uint256",
          "name": "startTime",
          "type": "uint256"
        },
        {
          "internalType": "uint256",
          "name": "endTime",
          "type": "uint256"
        },
        {
          "internalType": "uint256",
          "name": "exponent",
          "type": "uint256"
        },
        {
          "internalType": "uint256",
          "name": "withdrawnAmount",
          "type": "uint256"
        },
        {
          "internalType": "bool",
          "name": "exists",
          "type": "bool"
        }
      ],
      "stateMutability": "view",
      "type": "function"
    },
    {
      "inputs": [],
      "name": "nftAddress",
      "outputs": [
        {
          "internalType": "address",
          "name": "",
          "type": "address"
        }
      ],
      "stateMutability": "view",
      "type": "function"
    },
    {
      "inputs": [],
      "name": "owner",
      "outputs": [
        {
          "internalType": "address",
          "name": "",
          "type": "address"
        }
      ],
      "stateMutability": "view",
      "type": "function"
    },
    {
      "inputs": [],
      "name": "renounceOwnership",
      "outputs": [],
      "stateMutability": "nonpayable",
      "type": "function"
    },
    {
      "inputs": [
        {
          "internalType": "string",
          "name": "prefix",
          "type": "string"
        },
        {
          "internalType": "string",
          "name": "suffix",
          "type": "string"
        }
      ],
      "name": "setTokenURL",
      "outputs": [],
      "stateMutability": "nonpayable",
      "type": "function"
    },
    {
      "inputs": [
        {
          "internalType": "address",
          "name": "newOwner",
          "type": "address"
        }
      ],
      "name": "transferOwnership",
      "outputs": [],
      "stateMutability": "nonpayable",
      "type": "function"
    },
    {
      "inputs": [
        {
          "internalType": "uint256",
          "name": "tokenId",
          "type": "uint256"
        }
      ],
      "name": "withdrawReleasedTokens",
      "outputs": [],
      "stateMutability": "nonpayable",
      "type": "function"
    }
  ],
  "bytecode": "0x608060405234801561001057600080fd5b5061002d61002261003260201b60201c565b61003a60201b60201c565b6100ff565b600033905090565b60008060029054906101000a900473ffffffffffffffffffffffffffffffffffffffff16905081600060026101000a81548173ffffffffffffffffffffffffffffffffffffffff021916908373ffffffffffffffffffffffffffffffffffffffff1602179055508173ffffffffffffffffffffffffffffffffffffffff168173ffffffffffffffffffffffffffffffffffffffff167f8be0079c531659141344cd1fd0a4f28419497f9722a3daafe3b4186f6b6457e060405160405180910390a35050565b614e0e8061010e6000396000f3fe608060405234801561001057600080fd5b50600436106100b45760003560e01c80638da5cb5b116100715780638da5cb5b14610153578063b7ab84a914610171578063bd3b0153146101a6578063bee9ba1b146101c4578063f2fde38b146101f4578063fd03ebfd14610210576100b4565b8063485cc955146100b95780635bf8633a146100d5578063647846a5146100f35780636d1a11cc14610111578063715018a61461012d5780638d322aab14610137575b600080fd5b6100d360048036038101906100ce9190613e86565b61022c565b005b6100dd61033c565b6040516100ea9190613ed5565b60405180910390f35b6100fb610362565b6040516101089190613ed5565b60405180910390f35b61012b60048036038101906101269190614036565b610388565b005b61013561049d565b005b610151600480360381019061014c91906140e4565b610525565b005b61015b610917565b6040516101689190613ed5565b60405180910390f35b61018b600480360381019061018691906140e4565b610940565b60405161019d9695949392919061413b565b60405180910390f35b6101ae610989565b6040516101bb919061419c565b60405180910390f35b6101de60048036038101906101d991906140e4565b610991565b6040516101eb919061419c565b60405180910390f35b61020e600480360381019061020991906141b7565b610b1b565b005b61022a600480360381019061022591906141e4565b610c12565b005b60006102386001610f97565b9050801561025c576001600060016101000a81548160ff0219169083151502179055505b81600160006101000a81548173ffffffffffffffffffffffffffffffffffffffff021916908373ffffffffffffffffffffffffffffffffffffffff16021790555082600260006101000a81548173ffffffffffffffffffffffffffffffffffffffff021916908373ffffffffffffffffffffffffffffffffffffffff16021790555080156103375760008060016101000a81548160ff0219169083151502179055507f7f26b83ff96e1f2b6a682f133852f6798a09c465da95921460cefb3847402498600160405161032e91906142b1565b60405180910390a15b505050565b600260009054906101000a900473ffffffffffffffffffffffffffffffffffffffff1681565b600160009054906101000a900473ffffffffffffffffffffffffffffffffffffffff1681565b610390611087565b73ffffffffffffffffffffffffffffffffffffffff166103ae610917565b73ffffffffffffffffffffffffffffffffffffffff1614610404576040517f08c379a00000000000000000000000000000000000000000000000000000000081526004016103fb90614329565b60405180910390fd5b6000600260009054906101000a900473ffffffffffffffffffffffffffffffffffffffff1690508073ffffffffffffffffffffffffffffffffffffffff16636d1a11cc84846040518363ffffffff1660e01b81526004016104669291906143b7565b600060405180830381600087803b15801561048057600080fd5b505af1158015610494573d6000803e3d6000fd5b50505050505050565b6104a5611087565b73ffffffffffffffffffffffffffffffffffffffff166104c3610917565b73ffffffffffffffffffffffffffffffffffffffff1614610519576040517f08c379a000000000000000000000000000000000000000000000000000000000815260040161051090614329565b60405180910390fd5b610523600061108f565b565b6003600082815260200190815260200160002060050160009054906101000a900460ff16610588576040517f08c379a000000000000000000000000000000000000000000000000000000000815260040161057f9061443a565b60405180910390fd5b6000600260009054906101000a900473ffffffffffffffffffffffffffffffffffffffff1690503373ffffffffffffffffffffffffffffffffffffffff168173ffffffffffffffffffffffffffffffffffffffff16636352211e846040518263ffffffff1660e01b81526004016105ff919061419c565b602060405180830381865afa15801561061c573d6000803e3d6000fd5b505050506040513d601f19601f82011682018060405250810190610640919061446f565b73ffffffffffffffffffffffffffffffffffffffff1614610696576040517f08c379a000000000000000000000000000000000000000000000000000000000815260040161068d906144e8565b60405180910390fd5b6003600083815260200190815260200160002060040154600360008481526020019081526020016000206000015411610704576040517f08c379a00000000000000000000000000000000000000000000000000000000081526004016106fb90614554565b60405180910390fd5b600061070f83610991565b905060008111610754576040517f08c379a000000000000000000000000000000000000000000000000000000000815260040161074b906145c0565b60405180910390fd5b6000600360008581526020019081526020016000206004015482610778919061460f565b9050600081116107bd576040517f08c379a00000000000000000000000000000000000000000000000000000000081526004016107b49061468f565b60405180910390fd5b806003600086815260200190815260200160002060040160008282546107e391906146af565b925050819055507f5ec2c61fb5aa83552a174b8cd65da19f8af4bd7c69eb8f34a40d749f4ff508808433838560405161081f94939291906146e3565b60405180910390a16000600160009054906101000a900473ffffffffffffffffffffffffffffffffffffffff16905060008211610891576040517f08c379a00000000000000000000000000000000000000000000000000000000081526004016108889061468f565b60405180910390fd5b8073ffffffffffffffffffffffffffffffffffffffff1663a9059cbb33846040518363ffffffff1660e01b81526004016108cc929190614728565b6020604051808303816000875af11580156108eb573d6000803e3d6000fd5b505050506040513d601f19601f8201168201806040525081019061090f919061477d565b505050505050565b60008060029054906101000a900473ffffffffffffffffffffffffffffffffffffffff16905090565b60036020528060005260406000206000915090508060000154908060010154908060020154908060030154908060040154908060050160009054906101000a900460ff16905086565b600042905090565b60006003600083815260200190815260200160002060050160009054906101000a900460ff166109f6576040517f08c379a00000000000000000000000000000000000000000000000000000000081526004016109ed9061443a565b60405180910390fd5b60036000838152602001908152602001600020600101544211610a4e576040517f08c379a0000000000000000000000000000000000000000000000000000000008152600401610a45906147f6565b60405180910390fd5b6000600360008481526020019081526020016000206001015442610a72919061460f565b9050600060036000858152602001908152602001600020600101546003600086815260200190815260200160002060020154610aae919061460f565b9050808210610ad757600360008581526020019081526020016000206000015492505050610b16565b610b116003600086815260200190815260200160002060000154838360036000898152602001908152602001600020600301546064611154565b925050505b919050565b610b23611087565b73ffffffffffffffffffffffffffffffffffffffff16610b41610917565b73ffffffffffffffffffffffffffffffffffffffff1614610b97576040517f08c379a0000000000000000000000000000000000000000000000000000000008152600401610b8e90614329565b60405180910390fd5b600073ffffffffffffffffffffffffffffffffffffffff168173ffffffffffffffffffffffffffffffffffffffff1603610c06576040517f08c379a0000000000000000000000000000000000000000000000000000000008152600401610bfd90614888565b60405180910390fd5b610c0f8161108f565b50565b600073ffffffffffffffffffffffffffffffffffffffff168573ffffffffffffffffffffffffffffffffffffffff1603610c81576040517f08c379a0000000000000000000000000000000000000000000000000000000008152600401610c78906148f4565b60405180910390fd5b60008411610cc4576040517f08c379a0000000000000000000000000000000000000000000000000000000008152600401610cbb90614960565b60405180910390fd5b828211610d06576040517f08c379a0000000000000000000000000000000000000000000000000000000008152600401610cfd906149cc565b60405180910390fd5b6000600160009054906101000a900473ffffffffffffffffffffffffffffffffffffffff1690508073ffffffffffffffffffffffffffffffffffffffff166323b872dd3330886040518463ffffffff1660e01b8152600401610d6a939291906149ec565b6020604051808303816000875af1158015610d89573d6000803e3d6000fd5b505050506040513d601f19601f82011682018060405250810190610dad919061477d565b506000600260009054906101000a900473ffffffffffffffffffffffffffffffffffffffff1690508073ffffffffffffffffffffffffffffffffffffffff16636a627842886040518263ffffffff1660e01b8152600401610e0e9190613ed5565b600060405180830381600087803b158015610e2857600080fd5b505af1158015610e3c573d6000803e3d6000fd5b5050505060008173ffffffffffffffffffffffffffffffffffffffff166318160ddd6040518163ffffffff1660e01b8152600401602060405180830381865afa158015610e8d573d6000803e3d6000fd5b505050506040513d601f19601f82011682018060405250810190610eb19190614a38565b90506040518060c00160405280888152602001878152602001868152602001858152602001600081526020016001151581525060036000838152602001908152602001600020600082015181600001556020820151816001015560408201518160020155606082015181600301556080820151816004015560a08201518160050160006101000a81548160ff0219169083151502179055509050507fe6a00173ff89efee2b47eea2cbd71303615f8164e6d2a74d4303bcda9bf591c081898888888c604051610f8596959493929190614a65565b60405180910390a15050505050505050565b60008060019054906101000a900460ff161561100e5760018260ff16148015610fc65750610fc430611304565b155b611005576040517f08c379a0000000000000000000000000000000000000000000000000000000008152600401610ffc90614b38565b60405180910390fd5b60009050611082565b8160ff1660008054906101000a900460ff1660ff1610611063576040517f08c379a000000000000000000000000000000000000000000000000000000000815260040161105a90614b38565b60405180910390fd5b816000806101000a81548160ff021916908360ff160217905550600190505b919050565b600033905090565b60008060029054906101000a900473ffffffffffffffffffffffffffffffffffffffff16905081600060026101000a81548173ffffffffffffffffffffffffffffffffffffffff021916908373ffffffffffffffffffffffffffffffffffffffff1602179055508173ffffffffffffffffffffffffffffffffffffffff168173ffffffffffffffffffffffffffffffffffffffff167f8be0079c531659141344cd1fd0a4f28419497f9722a3daafe3b4186f6b6457e060405160405180910390a35050565b6000808411611198576040517f08c379a000000000000000000000000000000000000000000000000000000000815260040161118f90614bca565b60405180910390fd5b838511156111db576040517f08c379a00000000000000000000000000000000000000000000000000000000081526004016111d290614c5c565b60405180910390fd5b6000821161121e576040517f08c379a000000000000000000000000000000000000000000000000000000000815260040161121590614cee565b60405180910390fd5b600061123a61122c87611327565b61123587611327565b6113a4565b905060006112518261124c6000611327565b611865565b60000b13611294576040517f08c379a000000000000000000000000000000000000000000000000000000000815260040161128b90614d5a565b60405180910390fd5b60006112b06112a286611327565b6112ab86611327565b6113a4565b905060006112ce6112c9836112c486611af4565b611b22565b611fad565b905060006112e46112de8b611327565b83611b22565b905060006112f182611fdb565b9050809550505050505095945050505050565b6000808273ffffffffffffffffffffffffffffffffffffffff163b119050919050565b600080820361133c57600060801b905061139f565b6000829050600061134c826120d9565b90506070811015611365578060700382901b9150611379565b6070811115611378576070810382901c91505b5b607081613fff01901b6dffffffffffffffffffffffffffff83161791508160801b925050505b919050565b600080617fff60708560801c6fffffffffffffffffffffffffffffffff16901c166fffffffffffffffffffffffffffffffff1690506000617fff60708560801c6fffffffffffffffffffffffffffffffff16901c166fffffffffffffffffffffffffffffffff169050617fff820361145d57617fff810361143c576f7fff800000000000000000000000000060801b9250505061185f565b6f8000000000000000000000000000000060801b841685189250505061185f565b617fff81036114db57600060801b6dffffffffffffffffffffffffffff60801b85166fffffffffffffffffffffffffffffffff1916146114b4576f7fff800000000000000000000000000060801b9250505061185f565b6f8000000000000000000000000000000060801b84861816600060801b179250505061185f565b600060801b6f7fffffffffffffffffffffffffffffff60801b85166fffffffffffffffffffffffffffffffff19160361159457600060801b6f7fffffffffffffffffffffffffffffff60801b86166fffffffffffffffffffffffffffffffff19160361155e576f7fff800000000000000000000000000060801b9250505061185f565b6f8000000000000000000000000000000060801b848618166f7fff000000000000000000000000000060801b179250505061185f565b60006dffffffffffffffffffffffffffff8560801c166fffffffffffffffffffffffffffffffff169050600082036115cf57600191506115e4565b6e010000000000000000000000000000811790505b60006dffffffffffffffffffffffffffff8760801c166fffffffffffffffffffffffffffffffff169050600084036116475760008114611642576000611629826120d9565b60e20390508082901b9150600194506072810384019350505b611660565b60726e0100000000000000000000000000008217901b90505b8181816116705761166f614d7a565b5b049050600081036116da57600060801b6f8000000000000000000000000000000060801b878918166fffffffffffffffffffffffffffffffff1916116116ba57600060801b6116cf565b6f8000000000000000000000000000000060801b5b94505050505061185f565b6d10000000000000000000000000008110156116f9576116f8614da9565b5b60006e08000000000000000000000000000082101561175a576e04000000000000000000000000000082101561174f576e02000000000000000000000000000082101561174757607061174a565b60715b611752565b60725b60ff16611764565b611763826120d9565b5b90506140718401818601111561178257617fff94506000915061181f565b83613ffc82870101101561179d57600094506000915061181e565b83613f8c8287010110156117eb5783613ffc860111156117c85783613ffc86010382901b91506117e2565b83613ffc860110156117e157613ffc8585030382901c91505b5b6000945061181d565b60708111156117fe576070810382901c91505b6dffffffffffffffffffffffffffff8216915083613f8d828701010394505b5b5b81607086901b6f8000000000000000000000000000000060801b898b181660801c6fffffffffffffffffffffffffffffffff16171760801b955050505050505b92915050565b6000806f7fffffffffffffffffffffffffffffff8460801c1690506f7fff0000000000000000000000000000816fffffffffffffffffffffffffffffffff1611156118af57600080fd5b60006f7fffffffffffffffffffffffffffffff8460801c1690506f7fff0000000000000000000000000000816fffffffffffffffffffffffffffffffff1611156118f857600080fd5b836fffffffffffffffffffffffffffffffff1916856fffffffffffffffffffffffffffffffff191614158061194e57506f7fff0000000000000000000000000000826fffffffffffffffffffffffffffffffff16105b61195757600080fd5b836fffffffffffffffffffffffffffffffff1916856fffffffffffffffffffffffffffffffff19160361198f57600092505050611aee565b60006f800000000000000000000000000000008660801c6fffffffffffffffffffffffffffffffff161015905060006f800000000000000000000000000000008660801c6fffffffffffffffffffffffffffffffff16101590508115611a80578015611a5457826fffffffffffffffffffffffffffffffff16846fffffffffffffffffffffffffffffffff1611611a27576001611a49565b7fffffffffffffffffffffffffffffffffffffffffffffffffffffffffffffffff5b945050505050611aee565b7fffffffffffffffffffffffffffffffffffffffffffffffffffffffffffffffff945050505050611aee565b8015611a93576001945050505050611aee565b826fffffffffffffffffffffffffffffffff16846fffffffffffffffffffffffffffffffff1611611ae4577fffffffffffffffffffffffffffffffffffffffffffffffffffffffffffffffff611ae7565b60015b9450505050505b92915050565b6000611b1b611b02836121ba565b6f3ffe62e42fefa39ef35793c7673007e560801b611b22565b9050919050565b600080617fff60708560801c6fffffffffffffffffffffffffffffffff16901c166fffffffffffffffffffffffffffffffff1690506000617fff60708560801c6fffffffffffffffffffffffffffffffff16901c166fffffffffffffffffffffffffffffffff169050617fff8203611cb457617fff8103611c4357836fffffffffffffffffffffffffffffffff1916856fffffffffffffffffffffffffffffffff191603611beb576f8000000000000000000000000000000060801b8416851892505050611fa7565b6f8000000000000000000000000000000060801b8486186fffffffffffffffffffffffffffffffff191603611c265783851792505050611fa7565b6f7fff800000000000000000000000000060801b92505050611fa7565b600060801b6f7fffffffffffffffffffffffffffffff60801b85166fffffffffffffffffffffffffffffffff191603611c93576f7fff800000000000000000000000000060801b92505050611fa7565b6f8000000000000000000000000000000060801b8416851892505050611fa7565b617fff8103611d2e57600060801b6f7fffffffffffffffffffffffffffffff60801b86166fffffffffffffffffffffffffffffffff191603611d0d576f7fff800000000000000000000000000060801b92505050611fa7565b6f8000000000000000000000000000000060801b8516841892505050611fa7565b60006dffffffffffffffffffffffffffff8660801c166fffffffffffffffffffffffffffffffff16905060008303611d695760019250611d7e565b6e010000000000000000000000000000811790505b60006dffffffffffffffffffffffffffff8660801c166fffffffffffffffffffffffffffffffff16905060008303611db95760019250611dce565b6e010000000000000000000000000000811790505b808202915060008203611e3a57600060801b6f8000000000000000000000000000000060801b878918166fffffffffffffffffffffffffffffffff191611611e1a57600060801b611e2f565b6f8000000000000000000000000000000060801b5b945050505050611fa7565b828401935060007c0200000000000000000000000000000000000000000000000000000000831015611ea1577c0100000000000000000000000000000000000000000000000000000000831015611e9957611e94836120d9565b611e9c565b60e05b611ea4565b60e15b90506140708186011015611ebf576000945060009250611f67565b6140e08186011015611f0357614070851015611ee457846140700383901c9250611efa565b614070851115611ef957614070850383901b92505b5b60009450611f66565b61c0dd8186011115611f1d57617fff945060009250611f65565b6070811115611f34576070810383901c9250611f48565b6070811015611f47578060700383901b92505b5b6dffffffffffffffffffffffffffff831692506140df8186010394505b5b5b82607086901b6f8000000000000000000000000000000060801b898b181660801c6fffffffffffffffffffffffffffffffff16171760801b955050505050505b92915050565b6000611fd4611fcf836f3fff71547652b82fe1777d0ffda0d23a60801b611b22565b61246d565b9050919050565b600080617fff60708460801c6fffffffffffffffffffffffffffffffff16901c166fffffffffffffffffffffffffffffffff169050613fff8110156120245760009150506120d4565b6f800000000000000000000000000000008360801c6fffffffffffffffffffffffffffffffff161061205557600080fd5b6140fe81111561206457600080fd5b60006e0100000000000000000000000000006dffffffffffffffffffffffffffff8560801c6fffffffffffffffffffffffffffffffff161617905061406f8210156120b8578161406f0381901c90506120ce565b61406f8211156120cd5761406f820381901b90505b5b80925050505b919050565b60008082116120e757600080fd5b6000700100000000000000000000000000000000831061210f57608083901c92506080810190505b68010000000000000000831061212d57604083901c92506040810190505b640100000000831061214757602083901c92506020810190505b62010000831061215f57601083901c92506010810190505b610100831061217657600883901c92506008810190505b6010831061218c57600483901c92506004810190505b600483106121a257600283901c92506002810190505b600283106121b1576001810190505b80915050919050565b60006f800000000000000000000000000000008260801c6fffffffffffffffffffffffffffffffff161115612204576f7fff800000000000000000000000000060801b9050612468565b6f3fff000000000000000000000000000060801b826fffffffffffffffffffffffffffffffff19160361223d57600060801b9050612468565b6000617fff60708460801c6fffffffffffffffffffffffffffffffff16901c166fffffffffffffffffffffffffffffffff169050617fff81036122835782915050612468565b60006dffffffffffffffffffffffffffff8460801c166fffffffffffffffffffffffffffffffff169050600082036122be57600191506122d3565b6e010000000000000000000000000000811790505b600081036122f8576fffff000000000000000000000000000060801b92505050612468565b60008061406f90506000613fff85106123225760009250613fff85039050600f84901b935061236f565b600192506e010000000000000000000000000000841061234f5784613ffe039050600f84901b935061236e565b600061235a856120d9565b90508061406d03915080607f0385901b9450505b5b6f8000000000000000000000000000000084036123b4578215612393576001810190505b600061239e826120d9565b60700390508082901b9150808303925050612415565b6000836123c25760006123c5565b60015b60ff1690505b6e01000000000000000000000000000082101561241357600182901b91506001830392508485029450600060ff86901c90508181188301925080607f0186901c9550506123cb565b505b6dffffffffffffffffffffffffffff8116607083901b84612437576000612449565b6f800000000000000000000000000000005b6fffffffffffffffffffffffffffffffff16171760801b955050505050505b919050565b6000806f800000000000000000000000000000008360801c6fffffffffffffffffffffffffffffffff161190506000617fff60708560801c6fffffffffffffffffffffffffffffffff16901c166fffffffffffffffffffffffffffffffff16905060006dffffffffffffffffffffffffffff8560801c166fffffffffffffffffffffffffffffffff169050617fff8214801561250a575060008114155b1561252d576f7fff800000000000000000000000000060801b9350505050613e0f565b61400d8211156125655782612555576f7fff000000000000000000000000000060801b61255b565b600060801b5b9350505050613e0f565b613f7f82101561258d576f3fff000000000000000000000000000060801b9350505050613e0f565b6000820361259e57600191506125b3565b6e010000000000000000000000000000811790505b613fef8211156125cc57613fef820381901b90506125e2565b613fef8210156125e15781613fef0381901c90505b5b828015612600575071406e0000000000000000000000000000000081115b1561261457600060801b9350505050613e0f565b821580156126335750713fffffffffffffffffffffffffffffffffff81115b15612656576f7fff000000000000000000000000000060801b9350505050613e0f565b6000608082901c90506fffffffffffffffffffffffffffffffff82169150838015612682575060008214155b1561269257811991506001810190505b60006f80000000000000000000000000000000905060006f80000000000000000000000000000000841611156126dd57608070016a09e667f3bcc908b2fb1366ea957d3e8202901c90505b60006f40000000000000000000000000000000841611156127135760807001306fe0a31b7152de8d5a46305c85edec8202901c90505b60006f20000000000000000000000000000000841611156127495760807001172b83c7d517adcdf7c8c50eb14a791f8202901c90505b60006f100000000000000000000000000000008416111561277f57608070010b5586cf9890f6298b92b71842a983638202901c90505b60006f08000000000000000000000000000000841611156127b55760807001059b0d31585743ae7c548eb68ca417fd8202901c90505b60006f04000000000000000000000000000000841611156127eb576080700102c9a3e778060ee6f7caca4f7a29bde88202901c90505b60006f020000000000000000000000000000008416111561282157608070010163da9fb33356d84a66ae336dcdfa3f8202901c90505b60006f0100000000000000000000000000000084161115612857576080700100b1afa5abcbed6129ab13ec11dc95438202901c90505b60006e8000000000000000000000000000008416111561288c57608070010058c86da1c09ea1ff19d294cf2f679b8202901c90505b60006e400000000000000000000000000000841611156128c15760807001002c605e2e8cec506d21bfc89a23a00f8202901c90505b60006e200000000000000000000000000000841611156128f6576080700100162f3904051fa128bca9c55c31e5df8202901c90505b60006e1000000000000000000000000000008416111561292b5760807001000b175effdc76ba38e31671ca9397258202901c90505b60006e08000000000000000000000000000084161115612960576080700100058ba01fb9f96d6cacd4b180917c3d8202901c90505b60006e0400000000000000000000000000008416111561299557608070010002c5cc37da9491d0985c348c68e7b38202901c90505b60006e020000000000000000000000000000841611156129ca5760807001000162e525ee054754457d59952920268202901c90505b60006e010000000000000000000000000000841611156129ff57608070010000b17255775c040618bf4a4ade83fc8202901c90505b60006d800000000000000000000000000084161115612a335760807001000058b91b5bc9ae2eed81e9b7d4cfab8202901c90505b60006d400000000000000000000000000084161115612a67576080700100002c5c89d5ec6ca4d7c8acc017b7c98202901c90505b60006d200000000000000000000000000084161115612a9b57608070010000162e43f4f831060e02d839a9d16d8202901c90505b60006d100000000000000000000000000084161115612acf576080700100000b1721bcfc99d9f890ea069117638202901c90505b60006d080000000000000000000000000084161115612b0357608070010000058b90cf1e6d97f9ca14dbcc16288202901c90505b60006d040000000000000000000000000084161115612b375760807001000002c5c863b73f016468f6bac5ca2b8202901c90505b60006d020000000000000000000000000084161115612b6b576080700100000162e430e5a18f6119e3c02282a58202901c90505b60006d010000000000000000000000000084161115612b9f5760807001000000b1721835514b86e6d96efd1bfe8202901c90505b60006c8000000000000000000000000084161115612bd2576080700100000058b90c0b48c6be5df846c5b2ef8202901c90505b60006c4000000000000000000000000084161115612c0557608070010000002c5c8601cc6b9e94213c72737a8202901c90505b60006c2000000000000000000000000084161115612c385760807001000000162e42fff037df38aa2b219f068202901c90505b60006c1000000000000000000000000084161115612c6b57608070010000000b17217fba9c739aa5819f44f98202901c90505b60006c0800000000000000000000000084161115612c9e5760807001000000058b90bfcdee5acd3c1cedc8238202901c90505b60006c0400000000000000000000000084161115612cd1576080700100000002c5c85fe31f35a6a30da1be508202901c90505b60006c0200000000000000000000000084161115612d0457608070010000000162e42ff0999ce3541b9fffcf8202901c90505b60006c0100000000000000000000000084161115612d37576080700100000000b17217f80f4ef5aadda455548202901c90505b60006b80000000000000000000000084161115612d6957608070010000000058b90bfbf8479bd5a81b51ad8202901c90505b60006b40000000000000000000000084161115612d9b5760807001000000002c5c85fdf84bd62ae30a74cc8202901c90505b60006b20000000000000000000000084161115612dcd576080700100000000162e42fefb2fed257559bdaa8202901c90505b60006b10000000000000000000000084161115612dff5760807001000000000b17217f7d5a7716bba4a9ae8202901c90505b60006b08000000000000000000000084161115612e31576080700100000000058b90bfbe9ddbac5e109cce8202901c90505b60006b04000000000000000000000084161115612e6357608070010000000002c5c85fdf4b15de6f17eb0d8202901c90505b60006b02000000000000000000000084161115612e955760807001000000000162e42fefa494f1478fde058202901c90505b60006b01000000000000000000000084161115612ec757608070010000000000b17217f7d20cf927c8e94c8202901c90505b60006a800000000000000000000084161115612ef85760807001000000000058b90bfbe8f71cb4e4b33d8202901c90505b60006a400000000000000000000084161115612f29576080700100000000002c5c85fdf477b662b269458202901c90505b60006a200000000000000000000084161115612f5a57608070010000000000162e42fefa3ae53369388c8202901c90505b60006a100000000000000000000084161115612f8b576080700100000000000b17217f7d1d351a389d408202901c90505b60006a080000000000000000000084161115612fbc57608070010000000000058b90bfbe8e8b2d3d4ede8202901c90505b60006a040000000000000000000084161115612fed5760807001000000000002c5c85fdf4741bea6e77e8202901c90505b60006a02000000000000000000008416111561301e576080700100000000000162e42fefa39fe95583c28202901c90505b60006a01000000000000000000008416111561304f5760807001000000000000b17217f7d1cfb72b45e18202901c90505b600069800000000000000000008416111561307f576080700100000000000058b90bfbe8e7cc35c3f08202901c90505b60006940000000000000000000841611156130af57608070010000000000002c5c85fdf473e242ea388202901c90505b60006920000000000000000000841611156130df5760807001000000000000162e42fefa39f02b772c8202901c90505b600069100000000000000000008416111561310f57608070010000000000000b17217f7d1cf7d83c1a8202901c90505b600069080000000000000000008416111561313f5760807001000000000000058b90bfbe8e7bdcbe2e8202901c90505b600069040000000000000000008416111561316f576080700100000000000002c5c85fdf473dea871f8202901c90505b600069020000000000000000008416111561319f57608070010000000000000162e42fefa39ef44d918202901c90505b60006901000000000000000000841611156131cf576080700100000000000000b17217f7d1cf79e9498202901c90505b600068800000000000000000841611156131fe57608070010000000000000058b90bfbe8e7bce5448202901c90505b6000684000000000000000008416111561322d5760807001000000000000002c5c85fdf473de6eca8202901c90505b6000682000000000000000008416111561325c576080700100000000000000162e42fefa39ef366f8202901c90505b6000681000000000000000008416111561328b5760807001000000000000000b17217f7d1cf79afa8202901c90505b600068080000000000000000841611156132ba576080700100000000000000058b90bfbe8e7bcd6d8202901c90505b600068040000000000000000841611156132e957608070010000000000000002c5c85fdf473de6b28202901c90505b600068020000000000000000841611156133185760807001000000000000000162e42fefa39ef3588202901c90505b6000680100000000000000008416111561334757608070010000000000000000b17217f7d1cf79ab8202901c90505b6000678000000000000000841611156133755760807001000000000000000058b90bfbe8e7bcd58202901c90505b6000674000000000000000841611156133a3576080700100000000000000002c5c85fdf473de6a8202901c90505b6000672000000000000000841611156133d157608070010000000000000000162e42fefa39ef348202901c90505b6000671000000000000000841611156133ff576080700100000000000000000b17217f7d1cf7998202901c90505b60006708000000000000008416111561342d57608070010000000000000000058b90bfbe8e7bcc8202901c90505b60006704000000000000008416111561345b5760807001000000000000000002c5c85fdf473de58202901c90505b600067020000000000000084161115613489576080700100000000000000000162e42fefa39ef28202901c90505b6000670100000000000000841611156134b75760807001000000000000000000b17217f7d1cf788202901c90505b60006680000000000000841611156134e4576080700100000000000000000058b90bfbe8e7bb8202901c90505b600066400000000000008416111561351157608070010000000000000000002c5c85fdf473dd8202901c90505b600066200000000000008416111561353e5760807001000000000000000000162e42fefa39ee8202901c90505b600066100000000000008416111561356b57608070010000000000000000000b17217f7d1cf68202901c90505b60006608000000000000841611156135985760807001000000000000000000058b90bfbe8e7a8202901c90505b60006604000000000000841611156135c5576080700100000000000000000002c5c85fdf473c8202901c90505b60006602000000000000841611156135f257608070010000000000000000000162e42fefa39d8202901c90505b600066010000000000008416111561361f576080700100000000000000000000b17217f7d1ce8202901c90505b6000658000000000008416111561364b57608070010000000000000000000058b90bfbe8e68202901c90505b600065400000000000841611156136775760807001000000000000000000002c5c85fdf4728202901c90505b600065200000000000841611156136a3576080700100000000000000000000162e42fefa388202901c90505b600065100000000000841611156136cf5760807001000000000000000000000b17217f7d1b8202901c90505b600065080000000000841611156136fb576080700100000000000000000000058b90bfbe8d8202901c90505b6000650400000000008416111561372757608070010000000000000000000002c5c85fdf468202901c90505b600065020000000000841611156137535760807001000000000000000000000162e42fefa28202901c90505b6000650100000000008416111561377f57608070010000000000000000000000b17217f7d08202901c90505b6000648000000000841611156137aa5760807001000000000000000000000058b90bfbe78202901c90505b6000644000000000841611156137d5576080700100000000000000000000002c5c85fdf38202901c90505b60006420000000008416111561380057608070010000000000000000000000162e42fef98202901c90505b60006410000000008416111561382b576080700100000000000000000000000b17217f7c8202901c90505b60006408000000008416111561385657608070010000000000000000000000058b90bfbd8202901c90505b6000640400000000841611156138815760807001000000000000000000000002c5c85fde8202901c90505b6000640200000000841611156138ac576080700100000000000000000000000162e42fee8202901c90505b6000640100000000841611156138d75760807001000000000000000000000000b17217f68202901c90505b6000638000000084161115613901576080700100000000000000000000000058b90bfa8202901c90505b600063400000008416111561392b57608070010000000000000000000000002c5c85fc8202901c90505b60006320000000841611156139555760807001000000000000000000000000162e42fd8202901c90505b600063100000008416111561397f57608070010000000000000000000000000b17217e8202901c90505b60006308000000841611156139a95760807001000000000000000000000000058b90be8202901c90505b60006304000000841611156139d3576080700100000000000000000000000002c5c85e8202901c90505b60006302000000841611156139fd57608070010000000000000000000000000162e42e8202901c90505b6000630100000084161115613a27576080700100000000000000000000000000b172168202901c90505b60006280000084161115613a5057608070010000000000000000000000000058b90a8202901c90505b60006240000084161115613a795760807001000000000000000000000000002c5c848202901c90505b60006220000084161115613aa2576080700100000000000000000000000000162e418202901c90505b60006210000084161115613acb5760807001000000000000000000000000000b17208202901c90505b60006208000084161115613af4576080700100000000000000000000000000058b8f8202901c90505b60006204000084161115613b1d57608070010000000000000000000000000002c5c78202901c90505b60006202000084161115613b465760807001000000000000000000000000000162e38202901c90505b60006201000084161115613b6f57608070010000000000000000000000000000b1718202901c90505b600061800084161115613b975760807001000000000000000000000000000058b88202901c90505b600061400084161115613bbf576080700100000000000000000000000000002c5b8202901c90505b600061200084161115613be757608070010000000000000000000000000000162d8202901c90505b600061100084161115613c0f576080700100000000000000000000000000000b168202901c90505b600061080084161115613c3757608070010000000000000000000000000000058a8202901c90505b600061040084161115613c5f5760807001000000000000000000000000000002c48202901c90505b600061020084161115613c875760807001000000000000000000000000000001618202901c90505b600061010084161115613caf5760807001000000000000000000000000000000b08202901c90505b6000608084161115613cd65760807001000000000000000000000000000000578202901c90505b6000604084161115613cfd57608070010000000000000000000000000000002b8202901c90505b6000602084161115613d245760807001000000000000000000000000000000158202901c90505b6000601084161115613d4b57608070010000000000000000000000000000000a8202901c90505b6000600884161115613d725760807001000000000000000000000000000000048202901c90505b6000600484161115613d995760807001000000000000000000000000000000018202901c90505b84613dc1576dffffffffffffffffffffffffffff600f82901c169050613fff82019150613dfd565b613ffe8211613ded576dffffffffffffffffffffffffffff600f82901c16905081613fff039150613dfc565b613fef820381901c9050600091505b5b80607083901b1760801b955050505050505b919050565b6000604051905090565b600080fd5b600080fd5b600073ffffffffffffffffffffffffffffffffffffffff82169050919050565b6000613e5382613e28565b9050919050565b613e6381613e48565b8114613e6e57600080fd5b50565b600081359050613e8081613e5a565b92915050565b60008060408385031215613e9d57613e9c613e1e565b5b6000613eab85828601613e71565b9250506020613ebc85828601613e71565b9150509250929050565b613ecf81613e48565b82525050565b6000602082019050613eea6000830184613ec6565b92915050565b600080fd5b600080fd5b6000601f19601f8301169050919050565b7f4e487b7100000000000000000000000000000000000000000000000000000000600052604160045260246000fd5b613f4382613efa565b810181811067ffffffffffffffff82111715613f6257613f61613f0b565b5b80604052505050565b6000613f75613e14565b9050613f818282613f3a565b919050565b600067ffffffffffffffff821115613fa157613fa0613f0b565b5b613faa82613efa565b9050602081019050919050565b82818337600083830152505050565b6000613fd9613fd484613f86565b613f6b565b905082815260208101848484011115613ff557613ff4613ef5565b5b614000848285613fb7565b509392505050565b600082601f83011261401d5761401c613ef0565b5b813561402d848260208601613fc6565b91505092915050565b6000806040838503121561404d5761404c613e1e565b5b600083013567ffffffffffffffff81111561406b5761406a613e23565b5b61407785828601614008565b925050602083013567ffffffffffffffff81111561409857614097613e23565b5b6140a485828601614008565b9150509250929050565b6000819050919050565b6140c1816140ae565b81146140cc57600080fd5b50565b6000813590506140de816140b8565b92915050565b6000602082840312156140fa576140f9613e1e565b5b6000614108848285016140cf565b91505092915050565b61411a816140ae565b82525050565b60008115159050919050565b61413581614120565b82525050565b600060c0820190506141506000830189614111565b61415d6020830188614111565b61416a6040830187614111565b6141776060830186614111565b6141846080830185614111565b61419160a083018461412c565b979650505050505050565b60006020820190506141b16000830184614111565b92915050565b6000602082840312156141cd576141cc613e1e565b5b60006141db84828501613e71565b91505092915050565b600080600080600060a08688031215614200576141ff613e1e565b5b600061420e88828901613e71565b955050602061421f888289016140cf565b9450506040614230888289016140cf565b9350506060614241888289016140cf565b9250506080614252888289016140cf565b9150509295509295909350565b6000819050919050565b600060ff82169050919050565b6000819050919050565b600061429b6142966142918461425f565b614276565b614269565b9050919050565b6142ab81614280565b82525050565b60006020820190506142c660008301846142a2565b92915050565b600082825260208201905092915050565b7f4f776e61626c653a2063616c6c6572206973206e6f7420746865206f776e6572600082015250565b60006143136020836142cc565b915061431e826142dd565b602082019050919050565b6000602082019050818103600083015261434281614306565b9050919050565b600081519050919050565b60005b83811015614372578082015181840152602081019050614357565b60008484015250505050565b600061438982614349565b61439381856142cc565b93506143a3818560208601614354565b6143ac81613efa565b840191505092915050565b600060408201905081810360008301526143d1818561437e565b905081810360208301526143e5818461437e565b90509392505050565b7f54686520746f6b656e496420646f6573206e6f74206578697374000000000000600082015250565b6000614424601a836142cc565b915061442f826143ee565b602082019050919050565b6000602082019050818103600083015261445381614417565b9050919050565b60008151905061446981613e5a565b92915050565b60006020828403121561448557614484613e1e565b5b60006144938482850161445a565b91505092915050565b7f4e6f742074686520746f6b656e4964206f776e65720000000000000000000000600082015250565b60006144d26015836142cc565b91506144dd8261449c565b602082019050919050565b60006020820190508181036000830152614501816144c5565b9050919050565b7f54686520746f6b656e20686173206265656e206578747261637465642e000000600082015250565b600061453e601d836142cc565b915061454982614508565b602082019050919050565b6000602082019050818103600083015261456d81614531565b9050919050565b7f496e76616c696420746f6b656e20636f756e7400000000000000000000000000600082015250565b60006145aa6013836142cc565b91506145b582614574565b602082019050919050565b600060208201905081810360008301526145d98161459d565b9050919050565b7f4e487b7100000000000000000000000000000000000000000000000000000000600052601160045260246000fd5b600061461a826140ae565b9150614625836140ae565b925082820390508181111561463d5761463c6145e0565b5b92915050565b7f496e76616c696420746f6b656e20616d6f756e74000000000000000000000000600082015250565b60006146796014836142cc565b915061468482614643565b602082019050919050565b600060208201905081810360008301526146a88161466c565b9050919050565b60006146ba826140ae565b91506146c5836140ae565b92508282019050808211156146dd576146dc6145e0565b5b92915050565b60006080820190506146f86000830187614111565b6147056020830186613ec6565b6147126040830185614111565b61471f6060830184614111565b95945050505050565b600060408201905061473d6000830185613ec6565b61474a6020830184614111565b9392505050565b61475a81614120565b811461476557600080fd5b50565b60008151905061477781614751565b92915050565b60006020828403121561479357614792613e1e565b5b60006147a184828501614768565b91505092915050565b7f54686520746f6b656e206973206e6f742072656c656173656400000000000000600082015250565b60006147e06019836142cc565b91506147eb826147aa565b602082019050919050565b6000602082019050818103600083015261480f816147d3565b9050919050565b7f4f776e61626c653a206e6577206f776e657220697320746865207a65726f206160008201527f6464726573730000000000000000000000000000000000000000000000000000602082015250565b60006148726026836142cc565b915061487d82614816565b604082019050919050565b600060208201905081810360008301526148a181614865565b9050919050565b7f6661696c64206164647265737300000000000000000000000000000000000000600082015250565b60006148de600d836142cc565b91506148e9826148a8565b602082019050919050565b6000602082019050818103600083015261490d816148d1565b9050919050565b7f43616e2774206265206c657373207468616e2030000000000000000000000000600082015250565b600061494a6014836142cc565b915061495582614914565b602082019050919050565b600060208201905081810360008301526149798161493d565b9050919050565b7f43616e2774206265206c657373207468616e206e6f7700000000000000000000600082015250565b60006149b66016836142cc565b91506149c182614980565b602082019050919050565b600060208201905081810360008301526149e5816149a9565b9050919050565b6000606082019050614a016000830186613ec6565b614a0e6020830185613ec6565b614a1b6040830184614111565b949350505050565b600081519050614a32816140b8565b92915050565b600060208284031215614a4e57614a4d613e1e565b5b6000614a5c84828501614a23565b91505092915050565b600060c082019050614a7a6000830189614111565b614a876020830188613ec6565b614a946040830187614111565b614aa16060830186614111565b614aae6080830185614111565b614abb60a0830184614111565b979650505050505050565b7f496e697469616c697a61626c653a20636f6e747261637420697320616c72656160008201527f647920696e697469616c697a6564000000000000000000000000000000000000602082015250565b6000614b22602e836142cc565b9150614b2d82614ac6565b604082019050919050565b60006020820190508181036000830152614b5181614b15565b9050919050565b7f546f74616c2074696d65206d7573742062652067726561746572207468616e2060008201527f7a65726f00000000000000000000000000000000000000000000000000000000602082015250565b6000614bb46024836142cc565b9150614bbf82614b58565b604082019050919050565b60006020820190508181036000830152614be381614ba7565b9050919050565b7f456c61707365642074696d652063616e6e6f742065786365656420746f74616c60008201527f2074696d65000000000000000000000000000000000000000000000000000000602082015250565b6000614c466025836142cc565b9150614c5182614bea565b604082019050919050565b60006020820190508181036000830152614c7581614c39565b9050919050565b7f4578706f6e656e742064656e6f6d696e61746f72206d7573742062652067726560008201527f61746572207468616e207a65726f000000000000000000000000000000000000602082015250565b6000614cd8602e836142cc565b9150614ce382614c7c565b604082019050919050565b60006020820190508181036000830152614d0781614ccb565b9050919050565b7f526174696f206d7573742062652067726561746572207468616e207a65726f00600082015250565b6000614d44601f836142cc565b9150614d4f82614d0e565b602082019050919050565b60006020820190508181036000830152614d7381614d37565b9050919050565b7f4e487b7100000000000000000000000000000000000000000000000000000000600052601260045260246000fd5b7f4e487b7100000000000000000000000000000000000000000000000000000000600052600160045260246000fdfea2646970667358221220cff07f98c4ff69e837ef067ca0a0d6f3849997fafbf73159e21fd554362f978e64736f6c634300081b0033",
  "linkReferences": {},
  "deployedLinkReferences": {}
}